{
  "contractName": "ERC721Token",
  "abi": [
    {
      "constant": false,
      "inputs": [
        {
          "name": "_to",
          "type": "address"
        },
        {
          "name": "_tokenId",
          "type": "uint256"
        }
      ],
      "name": "approve",
      "outputs": [],
      "payable": false,
      "stateMutability": "nonpayable",
      "type": "function"
    },
    {
      "constant": true,
      "inputs": [],
      "name": "totalSupply",
      "outputs": [
        {
          "name": "",
          "type": "uint256"
        }
      ],
      "payable": false,
      "stateMutability": "view",
      "type": "function"
    },
    {
      "constant": true,
      "inputs": [
        {
          "name": "_tokenId",
          "type": "uint256"
        }
      ],
      "name": "approvedFor",
      "outputs": [
        {
          "name": "",
          "type": "address"
        }
      ],
      "payable": false,
      "stateMutability": "view",
      "type": "function"
    },
    {
      "constant": true,
      "inputs": [
        {
          "name": "_owner",
          "type": "address"
        }
      ],
      "name": "tokensOf",
      "outputs": [
        {
          "name": "",
          "type": "uint256[]"
        }
      ],
      "payable": false,
      "stateMutability": "view",
      "type": "function"
    },
    {
      "constant": true,
      "inputs": [
        {
          "name": "_tokenId",
          "type": "uint256"
        }
      ],
      "name": "ownerOf",
      "outputs": [
        {
          "name": "",
          "type": "address"
        }
      ],
      "payable": false,
      "stateMutability": "view",
      "type": "function"
    },
    {
      "constant": true,
      "inputs": [
        {
          "name": "_owner",
          "type": "address"
        }
      ],
      "name": "balanceOf",
      "outputs": [
        {
          "name": "",
          "type": "uint256"
        }
      ],
      "payable": false,
      "stateMutability": "view",
      "type": "function"
    },
    {
      "constant": false,
      "inputs": [
        {
          "name": "_to",
          "type": "address"
        },
        {
          "name": "_tokenId",
          "type": "uint256"
        }
      ],
      "name": "transfer",
      "outputs": [],
      "payable": false,
      "stateMutability": "nonpayable",
      "type": "function"
    },
    {
      "constant": false,
      "inputs": [
        {
          "name": "_tokenId",
          "type": "uint256"
        }
      ],
      "name": "takeOwnership",
      "outputs": [],
      "payable": false,
      "stateMutability": "nonpayable",
      "type": "function"
    },
    {
      "anonymous": false,
      "inputs": [
        {
          "indexed": true,
          "name": "_from",
          "type": "address"
        },
        {
          "indexed": true,
          "name": "_to",
          "type": "address"
        },
        {
          "indexed": false,
          "name": "_tokenId",
          "type": "uint256"
        }
      ],
      "name": "Transfer",
      "type": "event"
    },
    {
      "anonymous": false,
      "inputs": [
        {
          "indexed": true,
          "name": "_owner",
          "type": "address"
        },
        {
          "indexed": true,
          "name": "_approved",
          "type": "address"
        },
        {
          "indexed": false,
          "name": "_tokenId",
          "type": "uint256"
        }
      ],
      "name": "Approval",
      "type": "event"
    }
  ],
  "bytecode": "0x6060604052341561000f57600080fd5b6108878061001e6000396000f30060606040526004361061008d5763ffffffff7c0100000000000000000000000000000000000000000000000000000000600035041663095ea7b3811461009257806318160ddd146100b65780632a6dd48f146100db5780635a3f26721461010d5780636352211e1461017f57806370a0823114610195578063a9059cbb146101b4578063b2e6ceeb146101d6575b600080fd5b341561009d57600080fd5b6100b4600160a060020a03600435166024356101ec565b005b34156100c157600080fd5b6100c96102de565b60405190815260200160405180910390f35b34156100e657600080fd5b6100f16004356102e5565b604051600160a060020a03909116815260200160405180910390f35b341561011857600080fd5b61012c600160a060020a0360043516610300565b60405160208082528190810183818151815260200191508051906020019060200280838360005b8381101561016b578082015183820152602001610153565b505050509050019250505060405180910390f35b341561018a57600080fd5b6100f1600435610383565b34156101a057600080fd5b6100c9600160a060020a03600435166103ad565b34156101bf57600080fd5b6100b4600160a060020a03600435166024356103c8565b34156101e157600080fd5b6100b46004356103ff565b60008133600160a060020a031661020282610383565b600160a060020a03161461021557600080fd5b61021e83610383565b9150600160a060020a03848116908316141561023957600080fd5b610242836102e5565b600160a060020a03161515806102605750600160a060020a03841615155b156102d85760008381526002602052604090819020805473ffffffffffffffffffffffffffffffffffffffff1916600160a060020a0387811691821790925591908416907f8c5be1e5ebec7d5bd14f71427d1e84f3dd0314c0f7b2291e5b200ac8c7c3b9259086905190815260200160405180910390a35b50505050565b6000545b90565b600090815260026020526040902054600160a060020a031690565b61030861080c565b6003600083600160a060020a0316600160a060020a0316815260200190815260200160002080548060200260200160405190810160405280929190818152602001828054801561037757602002820191906000526020600020905b815481526020019060010190808311610363575b50505050509050919050565b600081815260016020526040812054600160a060020a03168015156103a757600080fd5b92915050565b600160a060020a031660009081526003602052604090205490565b8033600160a060020a03166103dc82610383565b600160a060020a0316146103ef57600080fd5b6103fa33848461042a565b505050565b61040933826104f0565b151561041457600080fd5b61042761042082610383565b338361042a565b50565b600160a060020a038216151561043f57600080fd5b61044881610383565b600160a060020a038381169116141561046057600080fd5b82600160a060020a031661047382610383565b600160a060020a03161461048657600080fd5b6104908382610516565b61049a83826105a8565b6104a4828261071f565b81600160a060020a031683600160a060020a03167fddf252ad1be2c89b69c2b068fc378daa952ba7f163c4a11628f55a4df523b3ef8360405190815260200160405180910390a3505050565b600082600160a060020a0316610505836102e5565b600160a060020a0316149392505050565b81600160a060020a031661052982610383565b600160a060020a03161461053c57600080fd5b600081815260026020526040808220805473ffffffffffffffffffffffffffffffffffffffff19169055600160a060020a038416907f8c5be1e5ebec7d5bd14f71427d1e84f3dd0314c0f7b2291e5b200ac8c7c3b9259084905190815260200160405180910390a35050565b600080600084600160a060020a03166105c085610383565b600160a060020a0316146105d357600080fd5b60008481526004602052604090205492506105fe60016105f2876103ad565b9063ffffffff6107e416565b600160a060020a03861660009081526003602052604090208054919350908390811061062657fe5b6000918252602080832090910154868352600182526040808420805473ffffffffffffffffffffffffffffffffffffffff19169055600160a060020a038916845260039092529120805491925082918590811061067f57fe5b6000918252602080832090910192909255600160a060020a03871681526003909152604081208054849081106106b157fe5b6000918252602080832090910192909255600160a060020a03871681526003909152604090208054906106e890600019830161081e565b5060008481526004602052604080822082905582825281208490555461071590600163ffffffff6107e416565b6000555050505050565b600081815260016020526040812054600160a060020a03161561074157600080fd5b6000828152600160205260409020805473ffffffffffffffffffffffffffffffffffffffff1916600160a060020a03851617905561077e836103ad565b600160a060020a0384166000908152600360205260409020805491925090600181016107aa838261081e565b5060009182526020808320919091018490558382526004905260408120829055546107dc90600163ffffffff6107f616565b600055505050565b6000828211156107f057fe5b50900390565b60008282018381101561080557fe5b9392505050565b60206040519081016040526000815290565b8154818355818115116103fa576000838152602090206103fa9181019083016102e291905b808211156108575760008155600101610843565b50905600a165627a7a72305820d8501c9057d6f4cee8ecb8dbbfcdbc59753fe9501f4d4d9b6bbae62c3076d30c0029",
  "source": "pragma solidity ^0.4.18;\n\nimport \"./ERC721.sol\";\nimport \"../../math/SafeMath.sol\";\n\n/**\n * @title ERC721Token\n * Generic implementation for the required functionality of the ERC721 standard\n */\ncontract ERC721Token is ERC721 {\n  using SafeMath for uint256;\n\n  // Total amount of tokens\n  uint256 private totalTokens;\n\n  // Mapping from token ID to owner\n  mapping (uint256 => address) private tokenOwner;\n\n  // Mapping from token ID to approved address\n  mapping (uint256 => address) private tokenApprovals;\n\n  // Mapping from owner to list of owned token IDs\n  mapping (address => uint256[]) private ownedTokens;\n\n  // Mapping from token ID to index of the owner tokens list\n  mapping(uint256 => uint256) private ownedTokensIndex;\n\n  /**\n  * @dev Guarantees msg.sender is owner of the given token\n  * @param _tokenId uint256 ID of the token to validate its ownership belongs to msg.sender\n  */\n  modifier onlyOwnerOf(uint256 _tokenId) {\n    require(ownerOf(_tokenId) == msg.sender);\n    _;\n  }\n\n  /**\n  * @dev Gets the total amount of tokens stored by the contract\n  * @return uint256 representing the total amount of tokens\n  */\n  function totalSupply() public view returns (uint256) {\n    return totalTokens;\n  }\n\n  /**\n  * @dev Gets the balance of the specified address\n  * @param _owner address to query the balance of\n  * @return uint256 representing the amount owned by the passed address\n  */\n  function balanceOf(address _owner) public view returns (uint256) {\n    return ownedTokens[_owner].length;\n  }\n\n  /**\n  * @dev Gets the list of tokens owned by a given address\n  * @param _owner address to query the tokens of\n  * @return uint256[] representing the list of tokens owned by the passed address\n  */\n  function tokensOf(address _owner) public view returns (uint256[]) {\n    return ownedTokens[_owner];\n  }\n\n  /**\n  * @dev Gets the owner of the specified token ID\n  * @param _tokenId uint256 ID of the token to query the owner of\n  * @return owner address currently marked as the owner of the given token ID\n  */\n  function ownerOf(uint256 _tokenId) public view returns (address) {\n    address owner = tokenOwner[_tokenId];\n    require(owner != address(0));\n    return owner;\n  }\n\n  /**\n   * @dev Gets the approved address to take ownership of a given token ID\n   * @param _tokenId uint256 ID of the token to query the approval of\n   * @return address currently approved to take ownership of the given token ID\n   */\n  function approvedFor(uint256 _tokenId) public view returns (address) {\n    return tokenApprovals[_tokenId];\n  }\n\n  /**\n  * @dev Transfers the ownership of a given token ID to another address\n  * @param _to address to receive the ownership of the given token ID\n  * @param _tokenId uint256 ID of the token to be transferred\n  */\n  function transfer(address _to, uint256 _tokenId) public onlyOwnerOf(_tokenId) {\n    clearApprovalAndTransfer(msg.sender, _to, _tokenId);\n  }\n\n  /**\n  * @dev Approves another address to claim for the ownership of the given token ID\n  * @param _to address to be approved for the given token ID\n  * @param _tokenId uint256 ID of the token to be approved\n  */\n  function approve(address _to, uint256 _tokenId) public onlyOwnerOf(_tokenId) {\n    address owner = ownerOf(_tokenId);\n    require(_to != owner);\n    if (approvedFor(_tokenId) != 0 || _to != 0) {\n      tokenApprovals[_tokenId] = _to;\n      Approval(owner, _to, _tokenId);\n    }\n  }\n\n  /**\n  * @dev Claims the ownership of a given token ID\n  * @param _tokenId uint256 ID of the token being claimed by the msg.sender\n  */\n  function takeOwnership(uint256 _tokenId) public {\n    require(isApprovedFor(msg.sender, _tokenId));\n    clearApprovalAndTransfer(ownerOf(_tokenId), msg.sender, _tokenId);\n  }\n\n  /**\n  * @dev Mint token function\n  * @param _to The address that will own the minted token\n  * @param _tokenId uint256 ID of the token to be minted by the msg.sender\n  */\n  function _mint(address _to, uint256 _tokenId) internal {\n    require(_to != address(0));\n    addToken(_to, _tokenId);\n    Transfer(0x0, _to, _tokenId);\n  }\n\n  /**\n  * @dev Burns a specific token\n  * @param _tokenId uint256 ID of the token being burned by the msg.sender\n  */\n  function _burn(uint256 _tokenId) onlyOwnerOf(_tokenId) internal {\n    if (approvedFor(_tokenId) != 0) {\n      clearApproval(msg.sender, _tokenId);\n    }\n    removeToken(msg.sender, _tokenId);\n    Transfer(msg.sender, 0x0, _tokenId);\n  }\n\n  /**\n   * @dev Tells whether the msg.sender is approved for the given token ID or not\n   * This function is not private so it can be extended in further implementations like the operatable ERC721\n   * @param _owner address of the owner to query the approval of\n   * @param _tokenId uint256 ID of the token to query the approval of\n   * @return bool whether the msg.sender is approved for the given token ID or not\n   */\n  function isApprovedFor(address _owner, uint256 _tokenId) internal view returns (bool) {\n    return approvedFor(_tokenId) == _owner;\n  }\n\n  /**\n  * @dev Internal function to clear current approval and transfer the ownership of a given token ID\n  * @param _from address which you want to send tokens from\n  * @param _to address which you want to transfer the token to\n  * @param _tokenId uint256 ID of the token to be transferred\n  */\n  function clearApprovalAndTransfer(address _from, address _to, uint256 _tokenId) internal {\n    require(_to != address(0));\n    require(_to != ownerOf(_tokenId));\n    require(ownerOf(_tokenId) == _from);\n\n    clearApproval(_from, _tokenId);\n    removeToken(_from, _tokenId);\n    addToken(_to, _tokenId);\n    Transfer(_from, _to, _tokenId);\n  }\n\n  /**\n  * @dev Internal function to clear current approval of a given token ID\n  * @param _tokenId uint256 ID of the token to be transferred\n  */\n  function clearApproval(address _owner, uint256 _tokenId) private {\n    require(ownerOf(_tokenId) == _owner);\n    tokenApprovals[_tokenId] = 0;\n    Approval(_owner, 0, _tokenId);\n  }\n\n  /**\n  * @dev Internal function to add a token ID to the list of a given address\n  * @param _to address representing the new owner of the given token ID\n  * @param _tokenId uint256 ID of the token to be added to the tokens list of the given address\n  */\n  function addToken(address _to, uint256 _tokenId) private {\n    require(tokenOwner[_tokenId] == address(0));\n    tokenOwner[_tokenId] = _to;\n    uint256 length = balanceOf(_to);\n    ownedTokens[_to].push(_tokenId);\n    ownedTokensIndex[_tokenId] = length;\n    totalTokens = totalTokens.add(1);\n  }\n\n  /**\n  * @dev Internal function to remove a token ID from the list of a given address\n  * @param _from address representing the previous owner of the given token ID\n  * @param _tokenId uint256 ID of the token to be removed from the tokens list of the given address\n  */\n  function removeToken(address _from, uint256 _tokenId) private {\n    require(ownerOf(_tokenId) == _from);\n\n    uint256 tokenIndex = ownedTokensIndex[_tokenId];\n    uint256 lastTokenIndex = balanceOf(_from).sub(1);\n    uint256 lastToken = ownedTokens[_from][lastTokenIndex];\n\n    tokenOwner[_tokenId] = 0;\n    ownedTokens[_from][tokenIndex] = lastToken;\n    ownedTokens[_from][lastTokenIndex] = 0;\n    // Note that this will handle single-element arrays. In that case, both tokenIndex and lastTokenIndex are going to\n    // be zero. Then we can make sure that we will remove _tokenId from the ownedTokens list since we are first swapping\n    // the lastToken to the first position, and then dropping the element placed in the last position of the list\n\n    ownedTokens[_from].length--;\n    ownedTokensIndex[_tokenId] = 0;\n    ownedTokensIndex[lastToken] = tokenIndex;\n    totalTokens = totalTokens.sub(1);\n  }\n}\n",
  "sourcePath": "/home/charles/dev/photodex/truffle/node_modules/zeppelin-solidity/contracts/token/ERC721/ERC721Token.sol",
  "compiler": {
    "name": "solc",
    "version": "0.4.18+commit.9cf6e910.Emscripten.clang"
  },
  "schemaVersion": "1.0.1",
  "updatedAt": "2018-04-01T19:17:20.200Z"
}