{
  "contractName": "Pixura",
  "abi": [
    {
      "constant": true,
      "inputs": [],
      "name": "totalSupply",
      "outputs": [
        {
          "name": "",
          "type": "uint256"
        }
      ],
      "payable": false,
      "stateMutability": "view",
      "type": "function"
    },
    {
      "constant": true,
      "inputs": [
        {
          "name": "_tokenId",
          "type": "uint256"
        }
      ],
      "name": "approvedFor",
      "outputs": [
        {
          "name": "",
          "type": "address"
        }
      ],
      "payable": false,
      "stateMutability": "view",
      "type": "function"
    },
    {
      "constant": true,
      "inputs": [
        {
          "name": "_owner",
          "type": "address"
        }
      ],
      "name": "tokensOf",
      "outputs": [
        {
          "name": "",
          "type": "uint256[]"
        }
      ],
      "payable": false,
      "stateMutability": "view",
      "type": "function"
    },
    {
      "constant": true,
      "inputs": [
        {
          "name": "_tokenId",
          "type": "uint256"
        }
      ],
      "name": "ownerOf",
      "outputs": [
        {
          "name": "",
          "type": "address"
        }
      ],
      "payable": false,
      "stateMutability": "view",
      "type": "function"
    },
    {
      "constant": true,
      "inputs": [
        {
          "name": "_owner",
          "type": "address"
        }
      ],
      "name": "balanceOf",
      "outputs": [
        {
          "name": "",
          "type": "uint256"
        }
      ],
      "payable": false,
      "stateMutability": "view",
      "type": "function"
    },
    {
      "constant": true,
      "inputs": [],
      "name": "owner",
      "outputs": [
        {
          "name": "",
          "type": "address"
        }
      ],
      "payable": false,
      "stateMutability": "view",
      "type": "function"
    },
    {
      "constant": false,
      "inputs": [
        {
          "name": "_tokenId",
          "type": "uint256"
        }
      ],
      "name": "takeOwnership",
      "outputs": [],
      "payable": false,
      "stateMutability": "nonpayable",
      "type": "function"
    },
    {
      "constant": true,
      "inputs": [],
      "name": "creatorPercentage",
      "outputs": [
        {
          "name": "",
          "type": "uint256"
        }
      ],
      "payable": false,
      "stateMutability": "view",
      "type": "function"
    },
    {
      "constant": true,
      "inputs": [],
      "name": "maintainerPercentage",
      "outputs": [
        {
          "name": "",
          "type": "uint256"
        }
      ],
      "payable": false,
      "stateMutability": "view",
      "type": "function"
    },
    {
      "constant": false,
      "inputs": [
        {
          "name": "newOwner",
          "type": "address"
        }
      ],
      "name": "transferOwnership",
      "outputs": [],
      "payable": false,
      "stateMutability": "nonpayable",
      "type": "function"
    },
    {
      "anonymous": false,
      "inputs": [
        {
          "indexed": true,
          "name": "_bidder",
          "type": "address"
        },
        {
          "indexed": true,
          "name": "_amount",
          "type": "uint256"
        },
        {
          "indexed": true,
          "name": "_tokenId",
          "type": "uint256"
        }
      ],
      "name": "Bid",
      "type": "event"
    },
    {
      "anonymous": false,
      "inputs": [
        {
          "indexed": true,
          "name": "_bidder",
          "type": "address"
        },
        {
          "indexed": true,
          "name": "_seller",
          "type": "address"
        },
        {
          "indexed": false,
          "name": "_amount",
          "type": "uint256"
        },
        {
          "indexed": true,
          "name": "_tokenId",
          "type": "uint256"
        }
      ],
      "name": "AcceptBid",
      "type": "event"
    },
    {
      "anonymous": false,
      "inputs": [
        {
          "indexed": true,
          "name": "_bidder",
          "type": "address"
        },
        {
          "indexed": true,
          "name": "_amount",
          "type": "uint256"
        },
        {
          "indexed": true,
          "name": "_tokenId",
          "type": "uint256"
        }
      ],
      "name": "CancelBid",
      "type": "event"
    },
    {
      "anonymous": false,
      "inputs": [
        {
          "indexed": true,
          "name": "_buyer",
          "type": "address"
        },
        {
          "indexed": true,
          "name": "_seller",
          "type": "address"
        },
        {
          "indexed": false,
          "name": "_amount",
          "type": "uint256"
        },
        {
          "indexed": true,
          "name": "_tokenId",
          "type": "uint256"
        }
      ],
      "name": "Sold",
      "type": "event"
    },
    {
      "anonymous": false,
      "inputs": [
        {
          "indexed": true,
          "name": "_tokenId",
          "type": "uint256"
        },
        {
          "indexed": true,
          "name": "_price",
          "type": "uint256"
        }
      ],
      "name": "SalePriceSet",
      "type": "event"
    },
    {
      "anonymous": false,
      "inputs": [
        {
          "indexed": true,
          "name": "previousOwner",
          "type": "address"
        },
        {
          "indexed": true,
          "name": "newOwner",
          "type": "address"
        }
      ],
      "name": "OwnershipTransferred",
      "type": "event"
    },
    {
      "anonymous": false,
      "inputs": [
        {
          "indexed": true,
          "name": "_from",
          "type": "address"
        },
        {
          "indexed": true,
          "name": "_to",
          "type": "address"
        },
        {
          "indexed": false,
          "name": "_tokenId",
          "type": "uint256"
        }
      ],
      "name": "Transfer",
      "type": "event"
    },
    {
      "anonymous": false,
      "inputs": [
        {
          "indexed": true,
          "name": "_owner",
          "type": "address"
        },
        {
          "indexed": true,
          "name": "_approved",
          "type": "address"
        },
        {
          "indexed": false,
          "name": "_tokenId",
          "type": "uint256"
        }
      ],
      "name": "Approval",
      "type": "event"
    },
    {
      "constant": false,
      "inputs": [
        {
          "name": "_to",
          "type": "address"
        },
        {
          "name": "_tokenId",
          "type": "uint256"
        }
      ],
      "name": "transfer",
      "outputs": [],
      "payable": false,
      "stateMutability": "nonpayable",
      "type": "function"
    },
    {
      "constant": false,
      "inputs": [
        {
          "name": "_uri",
          "type": "string"
        }
      ],
      "name": "addNewToken",
      "outputs": [],
      "payable": false,
      "stateMutability": "nonpayable",
      "type": "function"
    },
    {
      "constant": false,
      "inputs": [
        {
          "name": "_tokenId",
          "type": "uint256"
        }
      ],
      "name": "bid",
      "outputs": [],
      "payable": true,
      "stateMutability": "payable",
      "type": "function"
    },
    {
      "constant": false,
      "inputs": [
        {
          "name": "_tokenId",
          "type": "uint256"
        }
      ],
      "name": "acceptBid",
      "outputs": [],
      "payable": false,
      "stateMutability": "nonpayable",
      "type": "function"
    },
    {
      "constant": false,
      "inputs": [
        {
          "name": "_tokenId",
          "type": "uint256"
        }
      ],
      "name": "cancelBid",
      "outputs": [],
      "payable": false,
      "stateMutability": "nonpayable",
      "type": "function"
    },
    {
      "constant": false,
      "inputs": [
        {
          "name": "_tokenId",
          "type": "uint256"
        }
      ],
      "name": "buy",
      "outputs": [],
      "payable": true,
      "stateMutability": "payable",
      "type": "function"
    },
    {
      "constant": false,
      "inputs": [
        {
          "name": "_tokenId",
          "type": "uint256"
        },
        {
          "name": "_salePrice",
          "type": "uint256"
        }
      ],
      "name": "setSalePrice",
      "outputs": [],
      "payable": false,
      "stateMutability": "nonpayable",
      "type": "function"
    },
    {
      "constant": false,
      "inputs": [
        {
          "name": "_percentage",
          "type": "uint256"
        }
      ],
      "name": "setMaintainerPercentage",
      "outputs": [],
      "payable": false,
      "stateMutability": "nonpayable",
      "type": "function"
    },
    {
      "constant": false,
      "inputs": [
        {
          "name": "_percentage",
          "type": "uint256"
        }
      ],
      "name": "setCreatorPercentage",
      "outputs": [],
      "payable": false,
      "stateMutability": "nonpayable",
      "type": "function"
    },
    {
      "constant": true,
      "inputs": [],
      "name": "name",
      "outputs": [
        {
          "name": "_name",
          "type": "string"
        }
      ],
      "payable": false,
      "stateMutability": "pure",
      "type": "function"
    },
    {
      "constant": true,
      "inputs": [],
      "name": "symbol",
      "outputs": [
        {
          "name": "_symbol",
          "type": "string"
        }
      ],
      "payable": false,
      "stateMutability": "pure",
      "type": "function"
    },
    {
      "constant": false,
      "inputs": [
        {
          "name": "_to",
          "type": "address"
        },
        {
          "name": "_tokenId",
          "type": "uint256"
        }
      ],
      "name": "approve",
      "outputs": [],
      "payable": false,
      "stateMutability": "nonpayable",
      "type": "function"
    },
    {
      "constant": true,
      "inputs": [
        {
          "name": "_tokenId",
          "type": "uint256"
        }
      ],
      "name": "tokenURI",
      "outputs": [
        {
          "name": "",
          "type": "string"
        }
      ],
      "payable": false,
      "stateMutability": "view",
      "type": "function"
    },
    {
      "constant": true,
      "inputs": [
        {
          "name": "_uri",
          "type": "string"
        }
      ],
      "name": "tokenOfUri",
      "outputs": [
        {
          "name": "",
          "type": "uint256"
        }
      ],
      "payable": false,
      "stateMutability": "view",
      "type": "function"
    },
    {
      "constant": true,
      "inputs": [
        {
          "name": "_tokenId",
          "type": "uint256"
        }
      ],
      "name": "currentBidDetailsOfToken",
      "outputs": [
        {
          "name": "",
          "type": "uint256"
        },
        {
          "name": "",
          "type": "address"
        }
      ],
      "payable": false,
      "stateMutability": "view",
      "type": "function"
    },
    {
      "constant": true,
      "inputs": [
        {
          "name": "_tokenId",
          "type": "uint256"
        }
      ],
      "name": "creatorOfToken",
      "outputs": [
        {
          "name": "",
          "type": "address"
        }
      ],
      "payable": false,
      "stateMutability": "view",
      "type": "function"
    },
    {
      "constant": true,
      "inputs": [
        {
          "name": "_tokenId",
          "type": "uint256"
        }
      ],
      "name": "salePriceOfToken",
      "outputs": [
        {
          "name": "",
          "type": "uint256"
        }
      ],
      "payable": false,
      "stateMutability": "view",
      "type": "function"
    }
  ],
  "bytecode": "0x6060604052601e600655606460075560058054600160a060020a03191633600160a060020a031617905561161e806100386000396000f30060606040526004361061015e5763ffffffff7c0100000000000000000000000000000000000000000000000000000000600035041663053992c5811461016357806306fdde031461017e578063095ea7b31461020857806318160ddd1461022a5780631a289aea1461024f5780632a6dd48f146102865780632b1fd58a146102b8578063454a2ab3146102ce57806355d029dc146102d95780635a3f26721461032a5780635c68a5571461039c5780636352211e146103b257806370a08231146103c85780638da5cb5b146103e757806395d89b41146103fa5780639703ef351461040d5780639f2a3c3214610423578063a9059cbb14610439578063b2e6ceeb1461045b578063c0ec93e714610471578063c87b56dd14610487578063d5da8d441461049d578063d96a094a146104b3578063d9856c21146104be578063f071bf4f1461050f578063f2bf6b8c14610522578063f2fde38b14610535575b600080fd5b341561016e57600080fd5b61017c600435602435610554565b005b341561018957600080fd5b6101916105e2565b60405160208082528190810183818151815260200191508051906020019080838360005b838110156101cd5780820151838201526020016101b5565b50505050905090810190601f1680156101fa5780820380516001836020036101000a031916815260200191505b509250505060405180910390f35b341561021357600080fd5b61017c600160a060020a036004351660243561015e565b341561023557600080fd5b61023d610624565b60405190815260200160405180910390f35b341561025a57600080fd5b61026560043561062a565b604051918252600160a060020a031660208201526040908101905180910390f35b341561029157600080fd5b61029c600435610653565b604051600160a060020a03909116815260200160405180910390f35b34156102c357600080fd5b61017c60043561066e565b61017c600435610768565b34156102e457600080fd5b61023d60046024813581810190830135806020601f8201819004810201604051908101604052818152929190602084018383808284375094965061081c95505050505050565b341561033557600080fd5b610349600160a060020a0360043516610897565b60405160208082528190810183818151815260200191508051906020019060200280838360005b83811015610388578082015183820152602001610370565b505050509050019250505060405180910390f35b34156103a757600080fd5b61017c60043561091a565b34156103bd57600080fd5b61029c60043561093a565b34156103d357600080fd5b61023d600160a060020a0360043516610964565b34156103f257600080fd5b61029c61097f565b341561040557600080fd5b61019161098e565b341561041857600080fd5b61017c6004356109cf565b341561042e57600080fd5b61023d600435610a83565b341561044457600080fd5b61017c600160a060020a0360043516602435610a95565b341561046657600080fd5b61017c600435610ae5565b341561047c57600080fd5b61017c600435610b10565b341561049257600080fd5b610191600435610b30565b34156104a857600080fd5b61029c600435610beb565b61017c600435610c06565b34156104c957600080fd5b61017c60046024813581810190830135806020601f82018190048102016040519081016040528181529291906020840183838082843750949650610d2495505050505050565b341561051a57600080fd5b61023d610e5f565b341561052d57600080fd5b61023d610e65565b341561054057600080fd5b61017c600160a060020a0360043516610e6b565b60008233600160a060020a031661056a8261093a565b600160a060020a03161461057d57600080fd5b600084815260096020526040902054915081831161059a57600080fd5b6000848152600a602052604090819020849055839085907fe23ea816dce6d7f5c0b85cbd597e7c3b97b2453791152c0b94e5e5c5f314d2f0905160405180910390a350505050565b6105ea611528565b60408051908101604052600681527f7069787572610000000000000000000000000000000000000000000000000000602082015290505b90565b60005490565b600081815260096020908152604080832054600890925290912054600160a060020a0316915091565b600090815260026020526040902054600160a060020a031690565b6000806000808433600160a060020a03166106888261093a565b600160a060020a03161461069b57600080fd5b600086815260096020908152604080832054600890925290912054909550600160a060020a031693506106cd8661093a565b6000878152600b6020526040902054909350600160a060020a031691506106f5338588610ef9565b60055461070f908690600160a060020a031684868a610fbf565b61071886611103565b8583600160a060020a031685600160a060020a03167fd6deddb2e105b46d4644d24aac8c58493a0f107e7973b2fe8d8fa7931a2912be8860405190815260200160405180910390a4505050505050565b8033600160a060020a031661077c8261093a565b600160a060020a0316141561079057600080fd5b6107998261112c565b15156107a457600080fd5b6107ad82611140565b60008281526008602090815260408083208054600160a060020a03191633600160a060020a0316908117909155600990925291829020349081905584929091907f19421268847f42dd61705778018ddfc43bcdce8517e7a630acb12f122c709481905160405180910390a45050565b600080600d836040518082805190602001908083835b602083106108515780518252601f199092019160209182019101610832565b6001836020036101000a03801982511681845116808217855250505050505090500191505090815260200160405180910390205490506108908161093a565b5092915050565b61089f611528565b6003600083600160a060020a0316600160a060020a0316815260200190815260200160002080548060200260200160405190810160405280929190818152602001828054801561090e57602002820191906000526020600020905b8154815260200190600101908083116108fa575b50505050509050919050565b60055433600160a060020a0390811691161461093557600080fd5b600655565b600081815260016020526040812054600160a060020a031680151561095e57600080fd5b92915050565b600160a060020a031660009081526003602052604090205490565b600554600160a060020a031681565b610996611528565b60408051908101604052600281527f70780000000000000000000000000000000000000000000000000000000000006020820152905090565b600081815260086020526040812054600160a060020a039081169190331682146109f857600080fd5b50600082815260096020526040908190205490600160a060020a0333169082156108fc0290839051600060405180830381858888f193505050501515610a3d57600080fd5b610a4683611103565b828183600160a060020a03167f09dcebe16a733e22cc47e4959c50d4f21624d9f1815db32c2e439fbbd7b3eda060405160405180910390a4505050565b6000908152600a602052604090205490565b8033600160a060020a0316610aa98261093a565b600160a060020a031614610abc57600080fd5b6000828152600e60205260409020805460ff19166001179055610ae0338484610ef9565b505050565b610aef338261119b565b1515610afa57600080fd5b610b0d610b068261093a565b3383610ef9565b50565b60055433600160a060020a03908116911614610b2b57600080fd5b600755565b610b38611528565b610b418261093a565b50600c60008381526020019081526020016000208054600181600116156101000203166002900480601f01602080910402602001604051908101604052809291908181526020018280546001816001161561010002031660029004801561090e5780601f10610bbe5761010080835404028352916020019161090e565b820191906000526020600020905b815481529060010190602001808311610bcc5750939695505050505050565b6000908152600b6020526040902054600160a060020a031690565b60008060008060008533600160a060020a0316610c228261093a565b600160a060020a03161415610c3657600080fd5b6000878152600a60205260409020549550349450339350610c568761093a565b6000888152600b6020526040812054919450600160a060020a0390911692508611610c8057600080fd5b85851015610c8d57600080fd5b610c9687611140565b610c9f87611103565b6000878152600a6020526040812055610cb9838589610ef9565b600554610cd3908690600160a060020a031684868b610fbf565b8683600160a060020a031685600160a060020a03167f16dd16959a056953a63cf14bf427881e762e54f03d86b864efea8238dd3b822f8860405190815260200160405180910390a450505050505050565b600081600d816040518082805190602001908083835b60208310610d595780518252601f199092019160209182019101610d3a565b6001836020036101000a0380198251168184511680821785525050505050509050019150509081526020016040519081900390205415610d9857600080fd5b610da0610624565b6001019150610daf33836111c1565b6000828152600b602090815260408083208054600160a060020a03191633600160a060020a0316179055600c9091529020838051610df192916020019061153a565b5081600d846040518082805190602001908083835b60208310610e255780518252601f199092019160209182019101610e06565b6001836020036101000a03801982511681845116808217855250505050505090500191505090815260200160405190819003902055505050565b60075481565b60065481565b60055433600160a060020a03908116911614610e8657600080fd5b600160a060020a0381161515610e9b57600080fd5b600554600160a060020a0380831691167f8be0079c531659141344cd1fd0a4f28419497f9722a3daafe3b4186f6b6457e060405160405180910390a360058054600160a060020a031916600160a060020a0392909216919091179055565b600160a060020a0382161515610f0e57600080fd5b610f178161093a565b600160a060020a0383811691161415610f2f57600080fd5b82600160a060020a0316610f428261093a565b600160a060020a031614610f5557600080fd5b610f5f8382611223565b610f6983826112a8565b610f738282611406565b81600160a060020a031683600160a060020a03167fddf252ad1be2c89b69c2b068fc378daa952ba7f163c4a11628f55a4df523b3ef8360405190815260200160405180910390a3505050565b6000818152600e60205260408120548190819060ff1615611047576110016103e8610ff56006548b6114be90919063ffffffff16565b9063ffffffff6114f016565b925061101e6103e8610ff56007548b6114be90919063ffffffff16565b9150611040836110348a8563ffffffff61150716565b9063ffffffff61150716565b9050611066565b5050506000818152600e60205260408120805460ff1916600117905585815b600160a060020a03871683156108fc0284604051600060405180830381858888f19350505050151561109757600080fd5b600160a060020a03861682156108fc0283604051600060405180830381858888f1935050505015156110c857600080fd5b600160a060020a03851681156108fc0282604051600060405180830381858888f1935050505015156110f957600080fd5b5050505050505050565b60009081526008602090815260408083208054600160a060020a03191690556009909152812055565b600090815260096020526040902054341190565b600081815260096020908152604080832054600890925290912054600160a060020a03168015610ae057600160a060020a03811682156108fc0283604051600060405180830381858888f193505050501515610ae057600080fd5b600082600160a060020a03166111b083610653565b600160a060020a0316149392505050565b600160a060020a03821615156111d657600080fd5b6111e08282611406565b81600160a060020a031660007fddf252ad1be2c89b69c2b068fc378daa952ba7f163c4a11628f55a4df523b3ef8360405190815260200160405180910390a35050565b81600160a060020a03166112368261093a565b600160a060020a03161461124957600080fd5b6000818152600260205260408082208054600160a060020a0319169055600160a060020a038416907f8c5be1e5ebec7d5bd14f71427d1e84f3dd0314c0f7b2291e5b200ac8c7c3b9259084905190815260200160405180910390a35050565b600080600084600160a060020a03166112c08561093a565b600160a060020a0316146112d357600080fd5b60008481526004602052604090205492506112f2600161103487610964565b600160a060020a03861660009081526003602052604090208054919350908390811061131a57fe5b60009182526020808320909101548683526001825260408084208054600160a060020a0319169055600160a060020a038916845260039092529120805491925082918590811061136657fe5b6000918252602080832090910192909255600160a060020a038716815260039091526040812080548490811061139857fe5b6000918252602080832090910192909255600160a060020a03871681526003909152604090208054906113cf9060001983016115b8565b506000848152600460205260408082208290558282528120849055546113fc90600163ffffffff61150716565b6000555050505050565b600081815260016020526040812054600160a060020a03161561142857600080fd5b60008281526001602052604090208054600160a060020a031916600160a060020a03851617905561145883610964565b600160a060020a03841660009081526003602052604090208054919250906001810161148483826115b8565b5060009182526020808320919091018490558382526004905260408120829055546114b690600163ffffffff61151916565b600055505050565b6000808315156114d15760009150610890565b508282028284828115156114e157fe5b04146114e957fe5b9392505050565b60008082848115156114fe57fe5b04949350505050565b60008282111561151357fe5b50900390565b6000828201838110156114e957fe5b60206040519081016040526000815290565b828054600181600116156101000203166002900490600052602060002090601f016020900481019282601f1061157b57805160ff19168380011785556115a8565b828001600101855582156115a8579182015b828111156115a857825182559160200191906001019061158d565b506115b49291506115d8565b5090565b815481835581811511610ae057600083815260209020610ae09181019083015b61062191905b808211156115b457600081556001016115de5600a165627a7a72305820b9718bade0b156a6d806a72a51b05b783caa7189e19993430582881496610ac10029",
  "source": "pragma solidity ^0.4.18;\n\n\nimport '../node_modules/zeppelin-solidity/contracts/token/ERC721/ERC721Token.sol';\nimport '../node_modules/zeppelin-solidity/contracts/ownership/Ownable.sol';\nimport '../node_modules/zeppelin-solidity/contracts/math/SafeMath.sol';\nimport './ERC721Metadata.sol';\n\ncontract Pixura is ERC721Token, Ownable, ERC721Metadata {\n    using SafeMath for uint256;\n    \n    // Percentage to owner of Pixura. (* 10) to allow for < 1% \n    uint256 public maintainerPercentage = 30; \n    \n    // Percentage to creator of artwork. (* 10) to allow for tens decimal. \n    uint256 public creatorPercentage = 100; \n    \n    // Mapping from token ID to the address bidding\n    mapping(uint256 => address) private tokenBidder;\n\n    // Mapping from token ID to the current bid amount\n    mapping(uint256 => uint256) private tokenCurrentBid;\n    \n    // Mapping from token ID to the owner sale price\n    mapping(uint256 => uint256) private tokenSalePrice;\n\n    // Mapping from token ID to the creator's address\n    mapping(uint256 => address) private tokenCreator;\n  \n    // Mapping from token ID to the metadata uri\n    mapping(uint256 => string) private tokenToURI;\n    \n    // Mapping from metadata uri to the token ID\n    mapping(string => uint256) private uriToken;\n    \n    // Mapping from token ID to whether the token has been sold before.\n    mapping(uint256 => bool) private tokenSold;\n\n    event Bid(address indexed _bidder, uint256 indexed _amount, uint256 indexed _tokenId);\n    event AcceptBid(address indexed _bidder, address indexed _seller, uint256 _amount, uint256 indexed _tokenId);\n    event CancelBid(address indexed _bidder, uint256 indexed _amount, uint256 indexed _tokenId);\n    event Sold(address indexed _buyer, address indexed _seller, uint256 _amount, uint256 indexed _tokenId);\n    event SalePriceSet(uint256 indexed _tokenId, uint256 indexed _price);\n\n    /**\n     * @dev Guarantees _uri has not been used with a token already\n     * @param _uri string of the metadata uri associated with the token\n     */\n    modifier uniqueURI(string _uri) {\n        require(uriToken[_uri] == 0);\n        _;\n    }\n    /**\n     * @dev Guarantees msg.sender is not the owner of the given token\n     * @param _tokenId uint256 ID of the token to validate its ownership does not belongs to msg.sender\n     */\n    modifier notOwnerOf(uint256 _tokenId) {\n        require(ownerOf(_tokenId) != msg.sender);\n        _;\n    }\n\n    /**\n     * @dev Transfers the ownership of a given token ID to another address.\n     * Sets the token to be on its second sale.\n     * @param _to address to receive the ownership of the given token ID\n     * @param _tokenId uint256 ID of the token to be transferred\n     */\n    function transfer(address _to, uint256 _tokenId) public onlyOwnerOf(_tokenId) {\n      tokenSold[_tokenId] = true;\n      clearApprovalAndTransfer(msg.sender, _to, _tokenId);\n    }\n\n    /**\n     * @dev Adds a new unique token to the supply\n     * @param _uri string metadata uri associated with the token\n     */\n    function addNewToken(string _uri) public uniqueURI(_uri) {\n        uint256 newId = totalSupply() + 1;\n        _mint(msg.sender,newId);\n        tokenCreator[newId] = msg.sender;\n        tokenToURI[newId] = _uri;\n        uriToken[_uri] = newId;\n    }\n\n    /**\n    * @dev Bids on the token, replacing the bid if the bid is higher than the current bid. You cannot bid on a token you already own.\n    * @param _tokenId uint256 ID of the token to bid on\n    */\n    function bid(uint256 _tokenId) public payable notOwnerOf(_tokenId) {\n        require(isGreaterBid(_tokenId));\n        returnCurrentBid(_tokenId);\n        tokenBidder[_tokenId] = msg.sender;\n        tokenCurrentBid[_tokenId] = msg.value;\n        Bid(msg.sender, msg.value, _tokenId);\n    }\n\n    /**\n     * @dev Accept the bid on the token, transferring ownership to the current bidder and paying out the owner.\n     * @param _tokenId uint256 ID of the token with the standing bid\n     */\n    function acceptBid(uint256 _tokenId) public onlyOwnerOf(_tokenId) {\n        uint256 currentBid = tokenCurrentBid[_tokenId];\n        address currentBidder = tokenBidder[_tokenId];\n        address tokenOwner = ownerOf(_tokenId);\n        address creator = tokenCreator[_tokenId];\n        clearApprovalAndTransfer(msg.sender, currentBidder, _tokenId);\n        payout(currentBid, owner, creator, tokenOwner, _tokenId);\n        clearBid(_tokenId);\n        AcceptBid(currentBidder, tokenOwner, currentBid, _tokenId);\n    }\n    \n    /**\n     * @dev Cancels the bid on the token, returning the bid amount to the bidder.\n     * @param _tokenId uint256 ID of the token with a bid\n     */\n    function cancelBid(uint256 _tokenId) public {\n        address bidder = tokenBidder[_tokenId];\n        require(msg.sender == bidder);\n        uint256 bidAmount = tokenCurrentBid[_tokenId];\n        msg.sender.transfer(bidAmount);\n        clearBid(_tokenId);\n        CancelBid(bidder, bidAmount, _tokenId);\n    }\n    \n    /**\n     * @dev Purchase the token if there is a sale price; transfers ownership to buyer and pays out owner.\n     * @param _tokenId uint256 ID of the token to be purchased\n     */\n    function buy(uint256 _tokenId) public payable notOwnerOf(_tokenId) {\n        uint256 salePrice = tokenSalePrice[_tokenId];\n        uint256 sentPrice = msg.value;\n        address buyer = msg.sender;\n        address tokenOwner = ownerOf(_tokenId);\n        address creator = tokenCreator[_tokenId];\n        require(salePrice > 0);\n        require(sentPrice >= salePrice);\n        returnCurrentBid(_tokenId);\n        clearBid(_tokenId);\n        tokenSalePrice[_tokenId] = 0;\n        clearApprovalAndTransfer(tokenOwner, buyer, _tokenId);\n        payout(sentPrice, owner, creator, tokenOwner, _tokenId);\n        Sold(buyer, tokenOwner, sentPrice, _tokenId);\n    }\n    \n    /**\n     * @dev Set the sale price of the token\n     * @param _tokenId uint256 ID of the token with the standing bid\n     */\n    function setSalePrice(uint256 _tokenId, uint256 _salePrice) public onlyOwnerOf(_tokenId) {\n        uint256 currentBid = tokenCurrentBid[_tokenId];\n        require(_salePrice > currentBid);\n        tokenSalePrice[_tokenId] = _salePrice;\n        SalePriceSet(_tokenId, _salePrice);\n    }\n\n    /**\n     * @dev Set the maintainer Percentage. Needs to be 10 * target percentage\n     * @param _percentage uint256 percentage * 10.\n     */\n    function setMaintainerPercentage(uint256 _percentage) public onlyOwner() {\n       maintainerPercentage = _percentage;\n    }\n    \n    /**\n     * @dev Set the creator Percentage. Needs to be 10 * target percentage\n     * @param _percentage uint256 percentage * 10.\n     */\n    function setCreatorPercentage(uint256 _percentage) public onlyOwner() {\n       creatorPercentage = _percentage;\n    }\n    \n    /**\n     * @notice A descriptive name for a collection of NFTs in this contract\n     */\n    function name() external pure returns (string _name) {\n        return 'pixura';\n    }\n\n    /**\n     * @notice An abbreviated name for NFTs in this contract\n     */\n    function symbol() external pure returns (string _symbol) {\n        return 'px';\n    }\n\n    /**\n     * @notice approve is not a supported function for this contract\n     */\n    function approve(address _to, uint256 _tokenId) public {\n        revert();\n    }\n\n    /** \n     * @notice A distinct Uniform Resource Identifier (URI) for a given asset.\n     * @dev Throws if `_tokenId` is not a valid NFT. URIs are defined in RFC\n     * 3986. The URI may point to a JSON file that conforms to the \"ERC721\n     * Metadata JSON Schema\".\n     */\n    function tokenURI(uint256 _tokenId) external view returns (string) {\n        ownerOf(_tokenId);\n        return tokenToURI[_tokenId];\n    }\n\n    /**\n    * @dev Gets the metadata uri of the specified token ID. Throw if not\n    * connected to a token ID.\n    * @param _uri string uri of metadata\n    * @return uint256 token ID\n    */\n    function tokenOfUri(string _uri) public view returns (uint256) {\n        uint256 tokenId = uriToken[_uri];\n        ownerOf(tokenId);\n        return tokenId;\n    }\n\n    /**\n    * @dev Gets the current bid and bidder of the token\n    * @param _tokenId uint256 ID of the token to get bid details\n    * @return bid amount and bidder address of token\n    */\n    function currentBidDetailsOfToken(uint256 _tokenId) public view returns (uint256, address) {\n        return (tokenCurrentBid[_tokenId], tokenBidder[_tokenId]);\n    }\n\n    /**\n    * @dev Gets the creator of the token\n    * @param _tokenId uint256 ID of the token\n    * @return address of the creator\n    */\n    function creatorOfToken(uint256 _tokenId) public view returns (address) {\n        return tokenCreator[_tokenId];\n    }\n    \n    /**\n    * @dev Gets the sale price of the token\n    * @param _tokenId uint256 ID of the token\n    * @return sale price of the token\n    */\n    function salePriceOfToken(uint256 _tokenId) public view returns (uint256) {\n        return tokenSalePrice[_tokenId];\n    }\n    \n    /**\n    * @dev Internal function to return funds to current bidder.\n    * @param _tokenId uint256 ID of the token with the standing bid\n    */\n    function returnCurrentBid(uint256 _tokenId) private {\n        uint256 currentBid = tokenCurrentBid[_tokenId];\n        address currentBidder = tokenBidder[_tokenId];\n        if(currentBidder != address(0)) {\n            currentBidder.transfer(currentBid);\n        }\n    }\n    \n    /**\n    * @dev Internal function to check that the bid is larger than current bid\n    * @param _tokenId uint256 ID of the token with the standing bid\n    */\n    function isGreaterBid(uint256 _tokenId) private view returns (bool) {\n        return msg.value > tokenCurrentBid[_tokenId];\n    }\n    \n    /**\n    * @dev Internal function to clear bid\n    * @param _tokenId uint256 ID of the token with the standing bid\n    */\n    function clearBid(uint256 _tokenId) private {\n        tokenBidder[_tokenId] = address(0);\n        tokenCurrentBid[_tokenId] = 0;\n    }\n    \n    /**\n    * @dev Internal function to pay the bidder, creator, and maintainer\n    * @param _val uint256 value to be split\n    * @param _maintainer address of account maintaining Pixura\n    * @param _creator address of the creator of token\n    * @param _maintainer address of the owner of token\n    */\n    function payout(uint256 _val, address _maintainer, address _creator, address _tokenOwner, uint256 _tokenId) private {\n        uint256 maintainerPayment;\n        uint256 creatorPayment;\n        uint256 ownerPayment;\n        if (tokenSold[_tokenId]) {\n            maintainerPayment = _val.mul(maintainerPercentage).div(1000);\n            creatorPayment = _val.mul(creatorPercentage).div(1000);\n            ownerPayment = _val.sub(creatorPayment).sub(maintainerPayment); \n        } else {\n            maintainerPayment = 0;\n            creatorPayment = _val;\n            ownerPayment = 0;\n            tokenSold[_tokenId] = true;\n        }\n        _maintainer.transfer(maintainerPayment);\n        _creator.transfer(creatorPayment);\n        _tokenOwner.transfer(ownerPayment);\n      \n    }\n\n}\n",
  "sourcePath": "/home/pixura/photodex/truffle/contracts/Pixura.sol",
  "compiler": {
    "name": "solc",
    "version": "0.4.19+commit.c4cbbb05.Emscripten.clang"
  },
  "schemaVersion": "1.0.1",
  "updatedAt": "2018-03-23T19:27:46.599Z"
}